:1000000007308A00862F0000FF00030E8301A10045
:100010000A08A0008A010408A2007708A300780853
:10002000A4007908A5007A08A600831383128B1D0B
:100030001B280B1836288C308400001C21280C1833
:1000400039288B1E25280B193C28220884002308F8
:10005000F7002408F8002508F9002608FA0020080F
:100060008A00210E8300FF0E7F0E09008A110A12FA
:10007000D1298A110A12FF298A110A1247280A1067
:100080008A100A11820728340C34013406340B110B
:100090008A110A122528A8122808831687008312BD
:1000A0008712281328088316870083120717000079
:1000B000CE01A81328088316870083128717000033
:1000C0008316081683124E10081A4E1483168816CB
:1000D0008312CE10881ACE148316081783124E117D
:1000E000081B4E15831688178312CE11881BCE1558
:1000F000A813280883168700831287134E08F80078
:100100007808CD00CE01A813280883168700831233
:10011000871700008316081683124E10081A4E1413
:10012000831688168312CE10881ACE1483160817E9
:1001300083124E11081B4E15831688178312CE1199
:10014000881BCE15A81328088316870083128713EF
:100150004E08F8007808CC004D0EF700F030F70597
:1001600077084C04F8007808CC00CC1B5128CA084A
:100170000319C128A812280883168700831287163E
:10018000C728A81228088316870083128712000048
:100190002813280883168700831207130000A8136A
:1001A000280883168700831287134B0ECC000F306C
:1001B000CC054C08CD004D18DF280812E0280816A1
:1001C000831608128312CD18E7288812E8288816AB
:1001D0008316881283124D19EF280813F028081788
:1001E000831608138312CD19F7288813F828881767
:1001F0008316881300008312A8132808831687002B
:10020000831287170329A8132808831687008312EF
:1002100087134B080F39CC004C08CD004D1812291C
:10022000081213290816831608128312CD181A29EA
:1002300088121B2988168316881283124D192229C9
:10024000081323290817831608138312CD192A29A6
:1002500088132B2988178316881300008312A8138C
:10026000280883168700831287173629A8132808C1
:100270008316870083128713080046308400831397
:100280000008031951290130F800F701F70B46293E
:10029000F80B45294A30F700F70B4C294F29800B02
:1002A0004329080045080C3A03195D29063A031949
:1002B0006529023A03197B298029CA010130CB0044
:1002C0004B200230C6003D2185290130C600023096
:1002D000C700470B6C296F294030C8007029C8013E
:1002E00001304602C80748088038C900CA014908D9
:1002F000CB004B208529CA011030CB004B2085292B
:100300000130CA004508CB004B2008000B08C10093
:100310008B13831603178C170C1400000000831234
:100320000C087F390319CD290313C20003170D08E8
:100330000313C30003170F080313C4004208C500CA
:100340005221430803178D000313440803178F003D
:1003500083168C170C140000000083120C0D0E0D78
:100360007F390319CD290313C20003170D080313A6
:10037000C30003170F080313C4004208C50052212D
:10038000430803178D000313440803178F008D0AD9
:1003900003198F0A0313892903170313C11B8B1732
:1003A0000800831686178312861FD8292911A914DD
:1003B000A91CF3292919F32983160C10F73083128D
:1003C00003178D0001308F00031386212830C100F0
:1003D000FA30C6003D21C10BE829831608108312AC
:1003E0000814A91029110B108A110A1225280C10C3
:1003F0002010C42A522255295526C42A00008316EB
:100400000811043083128806FB308F001E308E00E6
:100410000130AB072B08643C031D152A2C08003C57
:100420000318152AAB010130AC02AC08031D202AC9
:100430002D08003C0318202A3B30AC000130AD02EF
:10044000AD08031D2B2A2E08003C03182B2A3B3035
:10045000AD000130AE020C108A110A1225282010BE
:100460002010CB2050264127D3204E052021E53CEB
:10047000613DA022F33C6110411753000C28F23774
:100480006739E136A029E531E93669008C18C232B6
:10049000F9307A000A19D3326E3A653AE935A01973
:1004A000D93A6E3675000C21E53C613D00018C297E
:1004B0006537F432F4346B008C2C7537EC3A00015C
:1004C0008A29E931E135EC346B1DA012E4210000EA
:1004D0008A23E531E935ED323A102532E435200042
:1004E0000C21E139EC30F930E3306B172E170001A5
:1004F0000C21E139EC30F434EC34F93772172E1753
:1005000000010C21E139EC30F434EC34F937721786
:100510002E1700000C21E53C613DA012E4210001F2
:100520000C21693AF43400008C296537F432F43434
:100530006B10253243000C21693AF43400008C2CF6
:100540007537EC3AA012E42100010C21693AF43429
:100550000000831609120108C03907388100831290
:100560008B16B5309000FB308F001E308E00831646
:100570000C10FF30860083128B11C0308B04A70152
:100580008B1BA7178B133230C6003D21A71B8B177F
:10059000A8122808831687008312871228132808B8
:1005A0008316870083120713A81328088316870071
:1005B00083128713A7018B1BA7178B130F30C6005D
:1005C0003D21A71B8B17B1013108023C031C232BD3
:1005D0000330CD004D18EE2A0812EF2A08168316B4
:1005E00008128312CD18F62A8812F72A8816831665
:1005F000881283124D19FE2A0813FF2A0817831642
:1006000008138312CD19062B8813072B881783161E
:10061000881300008312A81328088316870083120A
:100620008717122BA81328088316870083128713B5
:10063000A7018B1BA7178B130530C6003D21A71BF5
:100640008B17B10AE42A0230CD004D18292B08126D
:100650002A2B0816831608128312CD18312B881204
:10066000322B88168316881283124D19392B0813E2
:100670003A2B0817831608138312CD19412B8813C0
:10068000422B88178316881300008312A8132808AA
:1006900083168700831287174D2BA813280883160B
:1006A000870083128713B1013108033C031C672BB9
:1006B00031083F20B200A7018B1BA7178B13CA017B
:1006C0003208CB004B20A71B8B17B10A542BA70174
:1006D0008B1BA7178B133230C6003D21A71B8B172E
:1006E0008A110A129E2F2030321E3030B30031089A
:1006F000F700F71F832BF709F70A7708B1002D30B1
:10070000B300B217321478083108B7006430B8006B
:100710003808F80137020318902B3708F7009C2B94
:10072000F7010830B900B70DF70D38087702031844
:10073000F700F80DB90B932B7708B100303078072C
:10074000B4003108B7000A30B8003808F8013702A1
:100750000318AD2B3708F700B92BF7010830B900A3
:10076000B70DF70D380877020318F700F80DB90B2D
:10077000B02B30307707B60030307807B50033083B
:10078000F700303034020319C92BB214B21B3215F2
:10079000DD2B3308B4002030B300303035020319AC
:1007A000D52B3214B21BB214DD2B031D3214031DE2
:1007B000DD2B3408B5002030B4003219E42BB21818
:1007C000ED2B3218F62BFF2BA7018B1BA7178B13D2
:1007D0003308C5005221A71B8B17A7018B1BA71736
:1007E0008B133408C5005221A71B8B17A7018B1B45
:1007F000A7178B133508C5005221A71B8B17A7011C
:100800008B1BA7178B133608C5005221A71B8B170C
:1008100008002F3003178D0002308F000313A7014B
:100820008B1BA7178B138621A71B8B170830B100D2
:10083000A7018B1BA7178B13FA30C6003D21A71BFE
:100840008B17B10B182C3E3003178D0002308F0030
:100850000313A7018B1BA7178B138621A71B8B17CD
:100860000630B100A7018B1BA7178B13FA30C60007
:100870003D21A71B8B17B10B322C463003178D007F
:1008800002308F000313A7018B1BA7178B13862140
:10089000A71B8B174A3003178D0002308F000313FC
:1008A000A7018B1BA7178B138621A71B8B17281457
:1008B0002808831687008312071C6E2C0130B000B5
:1008C000533003178D0002308F000313A7018B1BD9
:1008D000A7178B138621A71B8B179D2CA8142808FC
:1008E000831687008312871C852C0230B000573096
:1008F00003178D0002308F000313A7018B1BA7176E
:100900008B138621A71B8B179D2C2815280883166F
:1009100087008312071D9C2C0330B0005C30031746
:100920008D0002308F000313A7018B1BA7178B13B9
:100930008621A71B8B179D2C572C83168617831295
:10094000861B452D603003178D0002308F00031089
:100950000B300313B1000B08B2008B13831603177F
:100960008C170C14000000000318E32C83120C08F1
:100970007F390313B30003170D080313B4000317E3
:100980000F080313B500A7018B1BA7178B133308A0
:10099000C5005221A71B8B17340803178D000313C2
:1009A000350803178F0083168C170C140000000005
:1009B00083120313B10BDD2CE02C83160317E32CF9
:1009C000082D8316031783120C0D0E0D7F390313A8
:1009D000B30003170D080313B40003170F08031324
:1009E000B500A7018B1BA7178B133308C500522135
:1009F000A71B8B17340803178D0003133508031743
:100A00008F008D0A03198F0A03100313B10BAE2C4C
:100A1000B21B8B172A08B1001830B2007323A7014C
:100A20008B1BA7178B134330C5005221A71B8B17B5
:100A300028142808831687008312071C2E2D2A08E5
:100A4000593C031C2E2D0130AA07A7018B1BA717A9
:100A50008B13C830C6003D21A71B8B17A81428088C
:100A6000831687008312871C442D2A08193C03181B
:100A7000442D0130AA02A7018B1BA7178B13C83086
:100A8000C6003D21A71B8B179D2C0230B100A7018A
:100A90008B1BA7178B13FA30C6003D21A71B8B17A2
:100AA000B10B472D831686178312861B0B2E281435
:100AB0002808831687008312071C6D2D2F08593CC8
:100AC000031C6D2D0130AF07A7018B1BA7178B13DC
:100AD000C830C6003D21A71B8B17A8142808831611
:100AE00087008312871C822DAF080319822D0130E5
:100AF000AF02A7018B1BA7178B13C830C6003D217F
:100B0000A71B8B17683003178D0002308F0003106E
:100B10000A300313B1000B08B2008B1383160317BE
:100B20008C170C14000000000318C32D83120C084E
:100B30007F390313B30003170D080313B400031721
:100B40000F080313B500A7018B1BA7178B133308DE
:100B5000C5005221A71B8B17340803178D00031300
:100B6000350803178F0083168C170C140000000043
:100B700083120313B10BBD2DC02D83160317C32D94
:100B8000E82D8316031783120C0D0E0D7F39031306
:100B9000B30003170D080313B40003170F08031362
:100BA000B500A7018B1BA7178B133308C500522173
:100BB000A71B8B17340803178D0003133508031781
:100BC0008F008D0A03198F0A03100313B10B8E2DAA
:100BD000B21B8B172F08B1001830B2007323A70186
:100BE0008B1BA7178B136430C5005221A71B8B17D3
:100BF000A7018B1BA7178B136B30C5005221A71BB6
:100C00008B17A7018B1BA7178B132030C500522110
:100C1000A71B8B17522DAF080319202EAC012F08EC
:100C2000AD00AE012914703003178D0002308F0023
:100C30000313A7018B1BA7178B138621A71B8B17E9
:100C400083160C148312291C802EA7018B1BA71757
:100C50008B130A30C5005221A71B8B172E08B10039
:100C60001830B2007323A7018B1BA7178B133A30E0
:100C7000C5005221A71B8B172D08B1001830B200F8
:100C80007323A7018B1BA7178B133A30C500522182
:100C9000A71B8B172C08B1001830B2007323AC08C7
:100CA000031D692EAD08031D692EAE08031D692EB4
:100CB00083160C1083122910783003178D00023030
:100CC0008F000313A7018B1BA7178B138621A71B6C
:100CD0008B172C08093C031D7F2EA7018B1BA71720
:100CE0008B130A30C5005221A71B8B17A7018B1B42
:100CF000A7178B130830C5005221A71B8B17232E73
:100D000083160C108130831203178D0002308F0080
:100D10000313A7018B1BA7178B138621A71B8B1708
:100D20000430B100A7018B1BA7178B13FA30C60044
:100D30003D21A71B8B17B10B922E8A110A129F2FF0
:100D40008B1529158A3003178D0002308F00031090
:100D500007300313B1000B08B2008B13831603177F
:100D60008C170C14000000000318E32E83120C08EB
:100D70007F390313B30003170D080313B4000317DF
:100D80000F080313B500A7018B1BA7178B1333089C
:100D9000C5005221A71B8B17340803178D000313BE
:100DA000350803178F0083168C170C140000000001
:100DB00083120313B10BDD2EE02E83160317E32EEF
:100DC000082F8316031783120C0D0E0D7F390313A2
:100DD000B30003170D080313B40003170F08031320
:100DE000B500A7018B1BA7178B133308C500522131
:100DF000A71B8B17340803178D000313350803173F
:100E00008F008D0A03198F0A03100313B10BAE2E46
:100E1000B21B8B172A08B1001830B2007323A70148
:100E20008B1BA7178B134330C5005221A71B8B17B1
:100E3000AC010F30AD000130AE00A81528088316B4
:100E400087008312871D282FAC012430AD00AE012E
:100E500083160C148312291D722FA7018B1BA71751
:100E60008B130A30C5005221A71B8B172E08B10027
:100E70001830B2007323A7018B1BA7178B133A30CE
:100E8000C5005221A71B8B172D08B1001830B200E6
:100E90007323A7018B1BA7178B133A30C500522170
:100EA000A71B8B172C08B1001830B2007323AC08B5
:100EB000031D712FAD08031D712FAE08031D712F87
:100EC00083160C1083122911903003178D00023005
:100ED0008F000313A7018B1BA7178B138621A71B5A
:100EE0008B172B2F2830B100A7018B1BA7178B1353
:100EF000FA30C6003D21A71B8B17B10B742F831648
:100F00000810831208148A110A12B32F8401831364
:100F10001F308305FF30A8002910A91029111930AE
:100F2000AA00AB01AC01AD01AE01AF01B001831667
:100F30001F149F141F159F118312A92A092C300812
:100F4000013A0319AA2F033A0319AC2F013A0319E6
:100F5000B02FB32FA02EB32F8A1500288A11B32FDC
:100F60008A15FD288A118316881108308312880695
:100F70000230B100A7018B1BA7178B13FA30C600F4
:0E0F80003D21A71B8B17B10BBA2FB32F6300B7
:101000008B152915943003178D0002308F000310C3
:101010000A300313B1000B08B2008B1383160317B9
:101020008C170C14000000000318452883120C08CC
:101030007F390313B30003170D080313B40003171C
:101040000F080313B500A7018B1BA7178B133308D9
:10105000C5008A1152218A15A71B8B173408031764
:101060008D000313350803178F0083168C170C149B
:101070000000000083120313B10B3F28422883169F
:10108000031745286C288316031783120C0D0E0DC9
:101090007F390313B30003170D080313B4000317BC
:1010A0000F080313B500A7018B1BA7178B13330879
:1010B000C5008A1152218A15A71B8B173408031704
:1010C0008D000313350803178F008D0A03198F0A4B
:1010D00003100313B10B0E28B21B8B172A08B100A3
:1010E0001830B2008A1173238A15A7018B1BA7172A
:1010F0008B134330C5008A1152218A15A71B8B1709
:10110000AC012D30AD00AE01A8152808831687006C
:101110008312871D8F28AC011730AD00AE018316F6
:101120000C148312291DE728A7018B1BA7178B130B
:101130000A30C5008A1152218A15A71B8B172E0869
:10114000B1001830B2008A1173238A15A7018B1BD6
:10115000A7178B133A30C5008A1152218A15A71B95
:101160008B172D08B1001830B2008A1173238A152D
:10117000A7018B1BA7178B133A30C5008A11522188
:101180008A15A71B8B172C08B1001830B2008A11E2
:1011900073238A15AC08031DE628AD08031DE62855
:1011A000AE08031DE62883160C10831229119B300C
:1011B00003178D0002308F000313A7018B1BA717A5
:1011C0008B138A1186218A15A71B8B17922828302A
:1011D000B100A7018B1BA7178B13FA30C6008A1129
:1011E0003D218A15A71B8B17B10BE9288316081020
:1011F000831208148A110A12B32F8B1529159F30F8
:1012000003178D0002308F00031007300313B10065
:101210000B08B2008B13831603178C170C140000F5
:1012200000000318422983120C087F390313B3000E
:1012300003170D080313B40003170F080313B500B9
:10124000A7018B1BA7178B133308C5008A115221E6
:101250008A15A71B8B17340803178D000313350855
:1012600003178F0083168C170C14000000008312E4
:101270000313B10B3C293F2983160317422969291F
:101280008316031783120C0D0E0D7F390313B30061
:1012900003170D080313B40003170F080313B50059
:1012A000A7018B1BA7178B133308C5008A11522186
:1012B0008A15A71B8B17340803178D0003133508F5
:1012C00003178F008D0A03198F0A03100313B10B44
:1012D0000B29B21B8B172A08B1001830B2008A11F3
:1012E00073238A15A7018B1BA7178B134330C500E7
:1012F0008A1152218A15A71B8B17AC011E30AD0035
:10130000AE01A8152808831687008312871D8C2933
:10131000AC010F30AD00AE0183160C148312291DF1
:10132000E429A7018B1BA7178B130A30C5008A116C
:1013300052218A15A71B8B172E08B1001830B20056
:101340008A1173238A15A7018B1BA7178B133A30B9
:10135000C5008A1152218A15A71B8B172D08B100D1
:101360001830B2008A1173238A15A7018B1BA717A7
:101370008B133A30C5008A1152218A15A71B8B178F
:101380002C08B1001830B2008A1173238A15AC08FA
:10139000031DE329AD08031DE329AE08031DE3295E
:1013A00083160C1083122911A53003178D0002300B
:1013B0008F000313A7018B1BA7178B138A1186219C
:1013C0008A15A71B8B178F292830B100A7018B1B0B
:1013D000A7178B13FA30C6008A113D218A15A71B67
:1013E0008B17B10BE62983160810831208148A1193
:0413F0000A12B32FFB
:02400E00393F38
:00000001FF
;PIC16F877
;CRC=D750  CREATED="31-May-15 12:35"
