:100000003BEF09F068961200046ED8CF05F0E0CF00
:1000100006F00001E9CF0CF0EACF07F0E1CF08F0DD
:10002000E2CF09F0D9CF0AF0DACF0BF0F3CF12F01C
:10003000F4CF13F0FACF14F0F5CF15F0F6CF16F099
:10004000F7CF17F000C00EF001C00FF002C010F0A3
:1000500003C011F0F2AA30EF00F0F2B4F9EF07F0AC
:10006000A0AA36EF00F0A1BABAEF07F00EC000F078
:100070000FC001F010C002F011C003F00CC0E9FF86
:1000800007C0EAFF078E08C0E1FF09C0E2FF0AC00F
:10009000D9FF0BC0DAFF12C0F3FF13C0F4FF14C086
:1000A000FAFF15C0F5FF16C0F6FF17C0F7FF0450A2
:1000B00006C0E0FF05C0D8FF1000F76ACA0FF66E51
:1000C000000EF7220900F5501200000302FFFFFFA7
:1000D000FFFFFFFFFFFFFFFFFFFFF76AEA0FF66E6C
:1000E000000EF7220900F550120000FF02FFFFFF8B
:1000F000FFFFFFFFFFFFFFFFFFFFF76A0A0FF66E2C
:10010000010EF7220900F550120040000B004000DC
:1001100000000000000000000000000000000000DF
:1001200000000000000000000000F76A3A0FF66EC1
:10013000010EF7220900F5501200400000004000B7
:1001400000000000000000000000000000000000AF
:1001500000000000000000000000F76A6A0FF66E61
:10016000010EF7220900F5501200090243000201B6
:100170000080320904000001020201000524001081
:1001800001042402020524060001052401000107E0
:100190000581030B00FA09040100020A00000007B0
:1001A0000502024000010705820240000100F76AD3
:1001B000BE0FF66E010EF7220900F5501200020084
:1001C000F76AD00FF66E010EF7220900F550120003
:1001D00012171B20FFFFFFFFF76AE80FF66E010EF4
:1001E000F7220900F5501200120110010200004030
:1001F00061043300000101020001F76A0A0FF66E84
:10020000020EF7220900F550120004030904080346
:1002100043004300530018035300450052004900B7
:1002200041004C002000440045004D004F00F76A9B
:100230003E0FF66E020EF7220900F5501200313221
:10024000334134353642373839432A3023446D92AE
:10025000699468A402D06894FCD7C6EF07F0400EFA
:100260000401016F040E036F180E026F880E006FF9
:10027000046B040E076F580E066F0001120070A089
:1002800002D0EDDF7090689ACFEF07F06A6A68924B
:10029000D5EF07F0AC91ABBFAC81AB9FAB51100871
:1002A00003E2000E016E16D0ACA10BD0036AAB5175
:1002B00004DFFF0802E1000E01D0010E016E0AD03A
:1002C00009D0036AAB5109DFFF0802E1000E01D03B
:1002D000010E016E1200B051B203F3CF01F0F4CF62
:1002E00000F0B303F3500026B151B203F3500020E5
:1002F000026E1200036AAA51700FE96E0F0E0320FE
:10030000EA6EEF6AAAC0ABF0C5DF015222E0B16B22
:10031000AAC0B0F0B36B080EB26FDDDF01C0E9FF19
:10032000040E0224EA6EEF6AB16BAAC0B0F0B36BA0
:10033000080EB26FD0DF02C0ACF001C0ABF0040E0B
:10034000AB27000EAC23ABC0E9FF040EAC25EA6E70
:10035000EF6A1200010EA96FA9510F0805E3A9C0A9
:10036000AAF0C8DFA92BF8D71200A36BA26B250E49
:10037000A16F800EA06FEA6A2B0EE96EE26AA00EF2
:10038000E16E020E016EE6CFEEFF012EFCD72D6A64
:100390002E6AA06BEA6A2F0EE96EE26AA00EE16E89
:1003A000E6CFEEFFA06BEA6A300EE96EE26AA00EBD
:1003B000E16EE6CFEEFF080EA06FEA6A310EE96E3D
:1003C000E26AA00EE16EE6CFEEFF806B7F91336AAA
:1003D000326A7B6B7C91816B1200286A276A9F6B63
:1003E0009F5101080AE3036A9F51290FE96E000E2D
:1003F0000320EA6EEF6A9F2BF3D7B7DF1B6A010E6B
:100400001C6E1A6A12006A6A686A9F0E6B6E3D0E55
:10041000696E6E6A9FDFE1DF160E706E68A602D00D
:10042000F1DDFCD76D981BDF030E226EDBEF07F0CA
:10043000698468986D82E1EF07F0689CE7EF07F048
:10044000A4C023F0120023681200A26B27502810CA
:100450002DE0A2513F082AE31D5005E0020A09E001
:10046000010A0DE011D026C003F0255076DEA36FFF
:100470000BD026C003F02550C0DEA36F05D026C0E8
:1004800003F02550A9DEA36F252AD8B4262A2750C9
:10049000D8B428062706A251A22B580FE96E040EE5
:1004A000EA6ED8B0EA2AA3C0EFFFD0D727502810B1
:1004B00004E1A251400801E01A6AA2C0A4F0C0DF22
:1004C0001200266A256A1D6A04011B51010A0001F7
:1004D00007E0030A0BE0010A0DE0220A22E03AD00D
:1004E000286A120E276E030E1D6E36D0286A430E40
:1004F000276E32D0020E1D6E036A04011A511E0FC0
:10050000E96E000E0320EA6E266AEFCF25F026C0C2
:1005100003F02550000171DE036A276E03C028F046
:100520001BD0036A04011A5100014ADE036A256EDA
:1005300003C026F0253C02D026520AE026C003F074
:1005400025500BDE036A276E03C028F005D002D0C9
:100550007ADF11D078DF0FD004011F5308E1285251
:1005600003E127501E5D03E2286A1EC427F0010E36
:100570001A6E00016ADFDEEF03F0A15304E1040EFE
:10058000226EE8DEC9D0050E226E040EA46F980E0E
:10059000A36F010EA26FA2510F08D8A0BDD0A2C0B8
:1005A000AAF0A8DEA56B036AA25197DDFF0859E007
:1005B000040EA56FD890A235036AB7DD0900F5CF08
:1005C00003F0A66F03C0A7F0B16BA2C0B0F0B36B8D
:1005D000080EB26F80DE01C0A9F0010E0124016E89
:1005E000000E0220036E01C0E9FF040E0324EA6E30
:1005F000A6C0EFFFB16BA2C0B0F0B36B080EB26F34
:100600006ADE01C0A9F0020E0124016E000E022074
:10061000036E01C0E9FF040E0324EA6EA4C0ECFFE0
:10062000ED52A3C0EFFFD890A235036A7EDD09002A
:10063000F5CF03F0A3270350A423880EA86FA7B11A
:10064000A881A7B3A883B16BA2C0B0F0B36B080EAA
:10065000B26F41DE01C0E9FF040E0224EA6EA8C0B9
:10066000EFFF036AA25129DDFF0840E0A583B16BCB
:10067000A2C0B0F0B36B080EB26F2DDE02C0AAF0BC
:1006800001C0A9F0040EA927000EAA23020EA92575
:10069000016E000EAA21036E01C0E9FF040E0324BF
:1006A000EA6EA4C0ECFFED52A3C0EFFFD890A235D4
:1006B000036A23DD0900F5CF03F0A3270350A42329
:1006C000B16BA2C0B0F0B36B080EB26F04DE02C013
:1006D000AAF001C0A9F0040EA927000EAA23A9C000
:1006E000E9FF040EAA25EA6E400EEF6EA55106083A
:1006F00002E10E0EA56F036AA251DFDC0108D8A447
:10070000A589036AA251700FE96E0F0E0320EA6EED
:10071000A5C0EFFFA22B3FD7D9EF03F00401195179
:10072000000A00010DE0010A14E0020A1EE0060AB8
:1007300027E0030A2CE00E0A2CE0010A30E03DD04D
:100740001CC058F40401596B020E0001A46F78DE3E
:1007500035D004011A2D06D0010E1C160001A46B21
:100760006FDE02D000016FDE29D004011A2D05D002
:100770001C820001A46B64DE02D0000164DE1ED086
:10078000020E1A6E1AC424F0A46B5ADE17D099D642
:1007900015D01BC058F4010EA46F52DE0FD0040117
:1007A0001A51010808E31AC41BF01AC4A1F0000191
:1007B000E4D6A46B45DE000101D045DE4EEF05F026
:1007C0001BC0A1F004011951000A000105E00A0A4A
:1007D0000BE0010A26E037D00401586B596B020E7A
:1007E0000001A46F2DDE30D0A15319E0010EA15DF0
:1007F000036ADDDC016E04011C5DD8A002D000019B
:100800000ED0036A1C51290FE96E000E0320EA6E18
:10081000EFCF58F4010E0001A46F12DE01D013DEF9
:1008200013D0A1530EE0036A04011C51290FE96E95
:10083000000E0320EA6E1AC4EFFF0001A46B00DE75
:1008400001D001DE01D0FFDD4EEF05F0A291A1BF86
:10085000A281A19FA2A117D0B16BA1C0B0F0B36BD0
:10086000080EB26F38DD02C0A4F001C0A3F0040E80
:10087000A327000EA423A3C0E9FF040EA425EA6E5B
:10088000880EEF6E0DD0B16BA1C0B0F0B36B080E47
:10089000B26F21DD01C0E9FF040E0224EA6EEF6AA7
:1008A000C6EF04F0A291A1BFA281A19FA2A117D07F
:1008B000B16BA1C0B0F0B36B080EB26F0CDD02C01B
:1008C000A4F001C0A3F0040EA327000EA423A3C02C
:1008D000E9FF040EA425EA6E840EEF6E0ED0B16B14
:1008E000A1C0B0F0B36B080EB26FF5DC01C0E9FF38
:1008F000040E0224EA6E840EEF6ECCEF04F0A29197
:10090000A1BFA281A19FA2A117D0B16BA1C0B0F0DD
:10091000B36B080EB26FDFDC02C0A5F001C0A4F01B
:10092000040EA427000EA523A4C0E9FF040EA525EC
:10093000EA6EEFCFA3F00ED0B16BA1C0B0F0B36BF5
:10094000080EB26FC8DC01C0E9FF040E0224EA6E93
:10095000EFCFA3F0A3AF02D0A3B502D0000E01D019
:10096000010E016ED6EF04F01CC4ABF093DC015213
:1009700028E004011951010A000105E0020A09E01A
:10098000030A0DE01DD01CC4A1F060D7A46B58DD94
:1009900018D01CC4A1F086D7A46B52DD12D004017C
:1009A000586B596B1CC4A1F00001A9D7015204E097
:1009B000010E0401586F0001020EA46F41DD01D049
:1009C00042DD4EEF05F0FE0E236E120004011C2DD9
:1009D00001D002D01C5348E11951000A00010BE07C
:1009E000010A0DE0210A1CE0010A1FE0030A2EE0C3
:1009F000010A31E037D0010E816FE5DF34D0040EFB
:100A0000EA6E580EE96EE26A340EE16E080E016E6F
:100A1000E6CFEEFF012EFCD71EC4A4F011DD23D0DB
:100A2000020E816F7F81CFDF1ED0040EEA6E580E5A
:100A3000E96EE26A2B0EE16E070E016EE6CFEEFF65
:100A4000012EFCD7070EA46FFBDC0DD01AC480F07A
:100A5000A46BF6DC08D01AC433F01BC432F0A46BCC
:100A6000EFDC01D0F0DC040100014EEF05F01A6A62
:100A7000040118517F0B000A000107E0010A07E09A
:100A8000030A07E0230A07E008D048D607D098D623
:100A900005D06AD703D09AD701D0D5DC70EF07F024
:100AA000B16BA2C0B0F0B36B080EB26F14DC01C022
:100AB000E9FF040E0224EA6EEFCFA4F0A35102086E
:100AC00006E1A4AD02D0A36B02D0010EA36FA35127
:100AD00003081AE1840EA46FB16BA2C0B0F0B36B2F
:100AE000080EB26F6BEC01F002C0A8F001C0A7F0D5
:100AF000040EA727000EA823A7C0E9FF040EA8250F
:100B0000EA6E840EEF6E07D0A32D03D0C80EA46F3B
:100B100002D0880EA46FD890A235036A95EC00F03D
:100B20000900F5CF03F0A56F03C0A6F0B16BA2C01A
:100B3000B0F0B36B080EB26F6BEC01F001C0A7F020
:100B4000010E0124016E000E0220036E01C0E9FFB8
:100B5000040E0324EA6EA5C0EFFFA6B1A481A6B3DC
:100B6000A483B16BA2C0B0F0B36B080EB26F6BEC94
:100B700001F001C0E9FF040E0224EA6EA4C0EFFFF9
:100B80001200036AAF51700FE96E0F0E0320EA6E78
:100B9000EF5219E0B16BAFC0B0F0B36B080EB26F9B
:100BA0006BEC01F002C0B1F001C0B0F0040EB02750
:100BB000000EB123B0C0E9FF040EB125EA6EEFCFFD
:100BC000B2F0B2AF02D0000E01D0010E016E1200E1
:100BD000AAC0AFF0D6DF0152D8B47BD0B16BAAC0A7
:100BE000B0F0B36B080EB26F6BEC01F002C0B0F066
:100BF00001C0AFF0040EAF27000EB023010EAF25E9
:100C0000016E000EB021036E01C0E9FF040E032443
:100C1000EA6EABC0EFFFAD5102081EE1B16BAAC096
:100C2000B0F0B36B080EB26F6BEC01F002C0B0F025
:100C300001C0AFF0040EAF27000EB023AFC0E9FF34
:100C4000040EB025EA6EEFCFAEF0AEAD02D0AD6BC4
:100C500002D0010EAD6F18D0AD51040815E1B16B93
:100C6000AAC0B0F0B36B080EB26F6BEC01F001C01C
:100C7000E9FF040E0224EA6EEFCFAEF0AEAD03D072
:100C8000010EAD6F01D0AD6BAD2D03D0C80EAE6FB0
:100C900002D0880EAE6FACB1AE81ACB3AE83B16B97
:100CA000AAC0B0F0B36B080EB26F6BEC01F002C0DB
:100CB000B0F001C0AFF0040EAF27000EB023AFC0FC
:100CC000E9FF040EB025EA6EAEC0EFFF010E016E23
:100CD00002D0000E016E12008151010A03E0030AE6
:100CE00013E024D0EA6A340EE96E040EE26E180EA8
:100CF000E16E080E016EE6CFEEFF012EFCD7A46B6D
:100D000020EC02F0816B13D0EA6A2B0EE96E040E20
:100D1000E26E180EE16E070E016EE6CFEEFF012EB9
:100D2000FCD7816BA46B20EC02F001D0816BCDEF7E
:100D300006F0B16BA2C0B0F0B36B080EB26F6BECF3
:100D400001F002C0A4F001C0A3F0010E0124016E65
:100D5000000E0220036E01C0E9FF040E0324EA6EB8
:100D6000036AEFCF01F003C002F0C3EF06F07C91FD
:100D7000020EA26FA36F94DEC8EF06F07C817E6B3B
:100D8000020EA26FD6D701C07DF07D5301E1EFD7EF
:100D9000D2EF06F0A15302E19FD704D0A15102087F
:100DA00001E1ECD71200A2C06EFFA25303E0040ED3
:100DB000226E02D0020E226EE3EF06F01B6A1A6A60
:100DC00024C0A2F0F0D74FEF07F0A2C0AFF0D9DEF9
:100DD000015243E0B16BA2C0B0F0B36B080EB26F2A
:100DE0006BEC01F002C0ABF001C0AAF0040EAA2720
:100DF000000EAB23020EAA25016E000EAB21036E7E
:100E000001C0E9FF040E0324EA6EECCFA9F0ED5215
:100E1000EFCFA8F0A9C0EAFFA8C0E9FFA4C0E2FF95
:100E2000A3C0E1FFA6C002F0A5C001F0015202E09C
:100E3000022A02D0025206E0E6CFEEFF012EFCD7D6
:100E4000022EFAD7A2C0AAF0A6C0ACF0A5C0ABF0A3
:100E5000A7C0ADF0BDDE015002D0000E016E120041
:100E60007B530EE0020EA26FA46B3C0EA36FA66B29
:100E70007BC0A5F0020EA76FA8DF015201E07B6BDB
:100E80001200EEDF54EF07F0A1530AE11A2C03D051
:100E900025EC02F004D01A50020801E18FD704D0EB
:100EA000A151020801E1EDD7120021309F6F9F335D
:100EB0009F331F0E9F17215241E1040100513C0B4B
:100EC0000001A06F430E040100170001A051340877
:100ED0001EE104010451800B01E0046B0001C7D541
:100EE0006D98233C05D0A26B030EA36FD9DD0ED005
:100EF000A26B020EA36FD4DD2350FE0807E0AA6B9D
:100F0000AC6B23C0ABF0040EAD6F62DE16D0A05107
:100F1000040813E1A16B3EDFA26B020EA36FC0DDDC
:100F20002350FE080AE0233C01D007D0AA6BAC6B2B
:100F300023C0ABF0010EAD6F4BDE1AD02150040878
:100F40000EE12368A16BA0DF233C01D007D0AA6B80
:100F5000AC6B23C0ABF0020EAD6F3ADE09D021B40A
:100F600004D09FC0A1F016DF03D09FC0A1F08CDF9A
:100F7000F1EF07F0A19A225201E139D0685237E02F
:100F800068A404D069A402D027EF01F06DA201D0BB
:100F90002ED068AA04D069AA02D03FEF01F068A25F
:100FA00004D069A202D046EF01F068A004D069A085
:100FB00002D003EF02F068A804D069A802D018EFAD
:100FC00002F068AC04D069AC02D01DEF02F09E6B59
:100FD00068A608D069A606D06CCF21F002EC00F01C
:100FE00064D701D004D09E519E2B0308F1E236EF66
:100FF00000F0670ED76E6A0ED66E96908D70F294E2
:1010000036EF00F00A42414D412563524300F00E95
:10101000936E936A8A6EF19E50EF09F06D6A696A69
:10102000080E6F6E94503009946E226A196AF2BEEF
:10103000198EF29EEDEC01F019BEF28E21EF08F050
:10104000EDD747EF08F0196AF2BE198EF29EEDEC6B
:1010500001F019BEF28E6D6A140E6F6E696A6D86AC
:10106000010E226E37EF08F06DB601D0ECD7222CBE
:101070000BD06DBA09D0686A696AA08AC00EF212F4
:10108000110E696E020E226E48EF08F0D9D7ECD728
:1010900022500208FCE159EF09F09388000E81B854
:1010A000010E886F938A000E81BA010E8817938C07
:1010B000000E81BC010E8817938E000E81BE010EBA
:1010C000881504E0000E016E03D002D0010E016EFF
:1010D00099EF08F0866B822B825102085BE2845103
:1010E000FC0F26E2040FCEEF08F093908A909392C3
:1010F0008A8293948A8493968A861AD093908A805F
:1011000093928A9293948A8493968A8611D093902C
:101110008A8093928A8293948A9493968A8608D03E
:1011200093908A8093928A8293948A8493968A96E3
:10113000B4D7015229E0938881B802D0876B11D0CF
:10114000938A81BA03D0010E876F0BD0938C81BC38
:1011500003D0020E876F05D0938E81BE02D0030E9E
:10116000876F8751040DF350896B886F036A845130
:101170008825016E89510322015017EC01F0836F1D
:101180007F8383C086F005D0842B8451040801E15D
:10119000846B826B86C001F066EF09F0E824F76A81
:1011A000F736B70FF66E110EF7220A00F550FA6EF9
:1011B0000800F550F96EEA10FC100E112011EA6AD1
:1011C000860EE96EEF500EE00F0E016E006A002EE3
:1011D000FED7012EFBD78F0E006E002EFED700002B
:1011E000EF2EF2D76DEF09F08C91F2BE8C81F29E5A
:1011F0007B513E0802E23E0E7B6F7B517B2B036AE4
:101200003C0FE96E000E0320EA6E8BC0EFFFF29EEA
:101210008CB1F28E0FEF09F08AC08BF0E5D7196A16
:10122000F2BE198EF29E020EAF6FABDC19BEF28ECB
:10123000015207E0196AF2BE198EF29E11DE19BE44
:10124000F28E2AEF09F07B513E0801E2FCD789C0FB
:101250008AF0E2D712000900F6CF87F0F7CF88F0C6
:10126000F5CF89F0F0DF87C0F6FF88C0F7FF862F43
:10127000F2D774EF09F0F86AD09E078EEA6AE96A3D
:10128000C150C00B0F09C16E070EB46E1E6A040E6A
:101290001F6E0C0E206E826B7F93836B846BB7D6B0
:1012A000196AF2BE198EF29EB5EC01F019BEF28EEB
:1012B000EDD6820ED56E670ED76E6A0ED66EF28AA6
:1012C000C00EF2127FB101D0FDD704D701C085F066
:1012D000855313E01E0E866F72D7040EF66E100E45
:1012E000F76E050E866FB7D785C089F0ACDF520E5A
:0E12F000896FA9DF430E896FA6DFE7D70300E1
:020000040030CA
:0E00000024CE3E1E0087A1000FC00FE00F406F
:00000001FF
;PIC18F4550
;CRC=7F78  CREATED="19-Þub-14 23:22"
