:041800005CEF10F099
:08180800046ED8CF05F0E0CF1B
:1018100006F00001E9CF0CF0EACF07F0E1CF08F0C5
:10182000E2CF09F0D9CF0AF0DACF0BF0F3CF12F004
:10183000F4CF13F0FACF14F0F5CF15F0F6CF16F081
:10184000F7CF17F000C00EF001C00FF002C010F08B
:1018500003C011F0F2AA30EF0CF0F2B46DEF0CF00F
:10186000A0A236EF0CF0A1B248EF0FF09DAC3CEF18
:101870000CF09EBC72EF0CF00EC000F00FC001F037
:1018800010C002F011C003F00CC0E9FF07C0EAFF6E
:10189000078E08C0E1FF09C0E2FF0AC0D9FF0BC0F4
:1018A000DAFF12C0F3FF13C0F4FF14C0FAFF15C033
:1018B000F5FF16C0F6FF17C0F7FF045006C0E0FFA3
:1018C00005C0D8FF1000F76AD60FF66E180EF72283
:1018D0000900F5501200280C010693928A72F294C6
:1018E0003CEF0CF09E9C3CEF0CF04C6A949E8B8E6F
:1018F000000095884C9083B84C80958A4C9283BAAE
:101900004C82958C4C9483BC4C84958E4C9683BEB3
:101910004C86949E8B9E4CC001F01200949C8B8C44
:101920000000E3DF01C04BF0E0DF01C04AF04B38BC
:10193000006EF00E001600504A10016E12004BB0FF
:1019400002D08C9801D08C8895984BB202D08C9A9A
:1019500001D08C8A959A4BB402D08C9C01D08C8C8F
:10196000959C4BB602D08C9E01D08C8E959E00002B
:10197000949E8B8E070E006E002EFED700D0949E94
:101980008B9E120095968C96C9DF01C04AF001BE6D
:10199000FBD7485203E095968C8602D095968C969C
:1019A0000000949C8B9C0000949E8B9E49384A6E4C
:1019B0000F0E4A164AC04BF0C2DF49500F0B4A6E59
:1019C0004B6EBDDF1200EA6A440EE96EEF500EE086
:1019D0000F0E016E006A002EFED7012EFBD78F0E70
:1019E000006E002EFED70000EF2EF2D71200452C1D
:1019F00001D003D0400E466E01D0466A010E445C11
:101A0000462646508009476E486A496EBBDF120081
:101A100043500C0A05E0060A0BE0020A0FE013D05F
:101A2000486A010E496EAEDF020E446ECCDF10D064
:101A3000010E446E020E456EDADF0AD0486A100EBF
:101A4000496EA0DF05D0010E486E43C049F09ADF11
:101A500012000900F6CF37F0F7CF38F0F5CF43F09A
:101A6000D7DF37C0F6FF38C0F7FF362EF2D71200A7
:101A70003950016A385C03E238C000F00CD0006ACB
:101A8000080E3A6E383600363950005CD8B0006E19
:101A900001363A2EF7D71200015036C038F0640EE6
:101AA000396EE6DF00C036F00150300E07E137A294
:101AB0000CD037B60AD037B8200E03D037963798F7
:101AC0003780012601C043F0A3DF36C038F00A0E8C
:101AD000396ECEDF00C036F00150300E06E137B669
:101AE00008D037A006D037B8200E012601C043F039
:101AF0008FDF300E362636C043F08ADF5FEF0FF0FF
:101B00008E0E006E37C001F036C002F0036A01523B
:101B100009E102C001F0026A080E005E015202E112
:101B2000006A08D0D89001BE04D002360136000603
:101B3000F9D7019E12004350D8B471D0006E4750BF
:101B4000D8B46DD0002604E3810E002668E204D0EC
:101B50007F0E005E64E363E044C04BF048504B1AD4
:101B6000448E488E46504A02F4CF4DF0455049020B
:101B7000F4CF03F0F3CF4CF04A02F3504D26F4506B
:101B80004C22000E032246504902F3504D26F450D9
:101B90004C22000E026A0322022244504A02F350F1
:101BA0004C26F4500322000E022244504902F35006
:101BB0000326F4500222000E016A01224650480218
:101BC000F3504C26F4500322000E0222012245500D
:101BD0004802F3500326F4500222000E0122445022
:101BE0004802F3500226F4500122002A01BE05D01B
:101BF0004C360336023601360006000E4CAE0AD0D3
:101C0000032A02220122015005E1025003E10350A0
:101C100001E1002A4BBE018E4BAE019E04D0006A4A
:101C2000016A026A036A12004350B608436E036AEF
:101C300044C047F0448ED890443245324632033295
:101C4000023201320032432EF6D747AE0BD0001ECF
:101C5000011E021E031E002AD8B4012AD8B4022A8B
:101C6000D8B4032AA2EF0EF0D8B203D0EA6A4B0E22
:101C7000E96E006A016A026A036A4B6A4C6A4D6A3D
:101C80004E6A4A504910481047102CE0200E4F6E03
:101C9000D89043364436453646364B364C364D366C
:101CA0004E364A504E5C08E149504D5C05E14850C3
:101CB0004C5C02E147504B5C0FE347504B5E485091
:101CC000D8A0483C4C5E4950D8A0493C4D5E4A5093
:101CD000D8A04A3C4E5ED880003601360236033624
:101CE0004F2ED6D74BC0EFFF4CC0ECFF4DC0ECFFE2
:101CF0004EC0ECFF1200E9503B6E3A503D6E19E0C9
:101D000039C046F038C045F037C044F036C043F023
:101D10004A6A496A200E486E820E476E0CDF03C085
:101D200039F002C038F001C037F000C036F03D2E67
:101D3000E7D739C046F038C045F037C044F036C068
:101D400043F072D703C039F002C038F001C037F059
:101D500000C036F039AE0DD03B063B8A361E371E2A
:101D6000381E391E362AD8B4372AD8B4382AD8B4FF
:101D7000392A3B0E426E9A0E416ECA0E406E3F6A81
:101D80000A0E3D6E3A50D8B43B2AD882EA6A360E23
:101D9000E96E39C046F038C045F037C044F036C06F
:101DA00043F042C04AF041C049F040C048F03FC053
:101DB00047F05ADF015000520FE13A283D5C0CE039
:101DC0003B500CE00F0B3D5C01E037E23BBE35D0F1
:101DD0003BBC04D0200E2DD0200E3B163BAA0CD0CD
:101DE0003B9A3A50D8A43B0600503B6E2D0E436EF2
:101DF0000FDE3B50006E3B6A3A503D5C0AE10050FA
:101E00003B6E2E0E436E04DE3B50006E200E3B16E2
:101E1000000E300E3BAA0DD03B9A3A50D8A43B0698
:101E200000503B6E2D0E436EF3DD3B50006E3B6A5F
:101E3000300E002600C043F0EBDDD89242C046F0E1
:101E400041C045F040C044F03FC043F04A6A496A8F
:101E5000486A0A0E476E08DF03C042F002C041F034
:101E600001C040F000C03FF03D2E8FD790EF0FF043
:101E70000900F5520CE0F6CF36F0F7CF37F0F5CF8A
:101E800043F0C6DD36C0F6FF37C0F7FFF1D71200CA
:101E9000CE501C6ECFCF1DF00C0E436EB9DD010E7F
:101EA000446E456EA4DD380EF66E1F0EF76E050EFD
:101EB000366ECFDD27C036F0110E376EEDD51DC062
:101EC00037F01CC036F01CDE03C046F002C045F0FF
:101ED00001C044F000C043F0D60E4A6E730E496E46
:101EE000020E486E7D0E476E26DE03C025F002C04E
:101EF00024F001C023F000C022F0420EF66E1F0E47
:101F0000F76E060E366EA5DD010EE96E25C039F0BE
:101F100024C038F023C037F022C036F03A6EEBD63A
:101F20004E0EF66E1F0EF76EA3DFCF6ACE6A939049
:101F30008A70A1923CEF0CF0447574793A253275A1
:101F400000000A48697A203A25322E316600206D59
:101F50002F646B000C2020202042616D615465636A
:101F6000682020202020000095968C96949C8B9CC5
:101F7000949E8B9E196AF2BE198EF29E0F0E446ECD
:101F800022DD19BEF28E2A6A2A50020814E3196A69
:101F9000F2BE198EF29E030E4B6ED1DC19BEF28E8C
:101FA000196AF2BE198EF29E050E446E0CDD19BE42
:101FB000F28E2A2AE9D7196AF2BE198EF29E020E13
:101FC0004B6EBDDC19BEF28E2A6A2A5003080FE35D
:101FD000036A2A5078DC2B6E196AF2BE198EF29EC3
:101FE000486A496ECFDC19BEF28E2A2AEED731EF4D
:101FF00010F09698860ED56E480ED76EE50ED66E0A
:10200000F28AC050C00B0409C06EC08EC280C1509D
:10201000C00B0E09C16E9D8C94948B940C0EBD6EFA
:10202000B76AB66A000E0509CA6E780ECB6E850EC9
:10203000B16E150EB36EA00EB26EA082CF6ACE6ADC
:10204000870ECD6EF19A0C0E2A6E196AF2BE198EA9
:10205000F29EFA0E446EB7DC19BEF28E2A2EF5D728
:1020600083D7040E2A6E196AF2BE198EF29EFA0EFA
:10207000446EA9DC19BEF28E2A2EF5D778EF10F047
:102080008E0E006E2A50005E2BC002F02CC001F0B4
:10209000028E005209E0D890025202E1015204E09F
:1020A00002320132002EF7D72BAE05D0011E021EE0
:1020B000012AD8B4022A1200F86AD09E078EEA6A72
:1020C000E96A1B6A1A6A1D6A1C6A216A206A1F6A09
:1020D0001E6A256A246A236A226A266A276A286A8F
:1020E0002990C150C00B0F09C16E070EB46E81D785
:1020F000196AF2BE198EF29E0C0E436E89DC19BE6F
:10210000F28E196AF2BE198EF29EFA0E446E5BDCF4
:1021100019BEF28E540EF66E1F0EF76E196AF2BEDD
:10212000198EF29EA5DE19BEF28E0C0E2A6E196A69
:10213000F2BE198EF29EFA0E446E45DC19BEF28E86
:102140002A2EF5D7196AF2BE198EF29E0C0E436E36
:102150005FDC19BEF28E26C0BEFFC00EF212938461
:1021600081A401D02980938681A602D02990BE6ADD
:1021700029A07BD0C282C2B2FED7C3CF1AF0C4CF8F
:102180001BF0196AF2BE198EF29E1BC037F01AC0FE
:1021900036F0B6DC19BEF28E196AF2BE198EF29EC6
:1021A000466A456A200E446E770E436E03C04AF0BD
:1021B00002C049F001C048F000C047F0BCDC19BEC5
:1021C000F28E03C021F002C020F001C01FF000C059
:1021D0001EF0196AF2BE198EF29E466A456A480ED2
:1021E000446E830E436E21C04AF020C049F01FC0E8
:1021F00048F01EC047F09FDC19BEF28E03C02DF0E0
:1022000002C02CF001C02BF000C02AF039DF01C061
:1022100026F0196AF2BE198EF29E466A456A200EB1
:10222000446E830E436E21C04AF020C049F01FC0A7
:1022300048F01EC047F07FDC19BEF28E03C02DF0BF
:1022400002C02CF001C02BF000C02AF019DF01C041
:1022500027F026C0BEFF196AF2BE198EF29EFA0E52
:0E226000446EE3EC0CF019BEF28E79D7030049
:020000040030CA
:0E00000024CE3E1E0087A1000FC00FE00F406F
:00000001FF
;PIC18F4550
;CRC=C7F7  CREATED="23-Eyl-14 16:46"
